{
  "_format": "hh-sol-artifact-1",
  "contractName": "AmanuBis",
  "sourceName": "contracts/DefaultNFT.sol",
  "abi": [
    {
      "inputs": [],
      "stateMutability": "nonpayable",
      "type": "constructor"
    },
    {
      "anonymous": false,
      "inputs": [
        {
          "indexed": true,
          "internalType": "address",
          "name": "owner",
          "type": "address"
        },
        {
          "indexed": true,
          "internalType": "address",
          "name": "approved",
          "type": "address"
        },
        {
          "indexed": true,
          "internalType": "uint256",
          "name": "tokenId",
          "type": "uint256"
        }
      ],
      "name": "Approval",
      "type": "event"
    },
    {
      "anonymous": false,
      "inputs": [
        {
          "indexed": true,
          "internalType": "address",
          "name": "owner",
          "type": "address"
        },
        {
          "indexed": true,
          "internalType": "address",
          "name": "operator",
          "type": "address"
        },
        {
          "indexed": false,
          "internalType": "bool",
          "name": "approved",
          "type": "bool"
        }
      ],
      "name": "ApprovalForAll",
      "type": "event"
    },
    {
      "anonymous": false,
      "inputs": [
        {
          "indexed": true,
          "internalType": "address",
          "name": "previousOwner",
          "type": "address"
        },
        {
          "indexed": true,
          "internalType": "address",
          "name": "newOwner",
          "type": "address"
        }
      ],
      "name": "OwnershipTransferred",
      "type": "event"
    },
    {
      "anonymous": false,
      "inputs": [
        {
          "indexed": true,
          "internalType": "address",
          "name": "from",
          "type": "address"
        },
        {
          "indexed": true,
          "internalType": "address",
          "name": "to",
          "type": "address"
        },
        {
          "indexed": true,
          "internalType": "uint256",
          "name": "tokenId",
          "type": "uint256"
        }
      ],
      "name": "Transfer",
      "type": "event"
    },
    {
      "inputs": [
        {
          "internalType": "address",
          "name": "to",
          "type": "address"
        },
        {
          "internalType": "uint256",
          "name": "tokenId",
          "type": "uint256"
        }
      ],
      "name": "approve",
      "outputs": [],
      "stateMutability": "nonpayable",
      "type": "function"
    },
    {
      "inputs": [
        {
          "internalType": "address",
          "name": "owner",
          "type": "address"
        }
      ],
      "name": "balanceOf",
      "outputs": [
        {
          "internalType": "uint256",
          "name": "",
          "type": "uint256"
        }
      ],
      "stateMutability": "view",
      "type": "function"
    },
    {
      "inputs": [],
      "name": "count",
      "outputs": [
        {
          "internalType": "uint256",
          "name": "",
          "type": "uint256"
        }
      ],
      "stateMutability": "view",
      "type": "function"
    },
    {
      "inputs": [
        {
          "internalType": "uint256",
          "name": "tokenId",
          "type": "uint256"
        },
        {
          "internalType": "string",
          "name": "infos",
          "type": "string"
        }
      ],
      "name": "editPhysicalInfos",
      "outputs": [
        {
          "internalType": "bool",
          "name": "",
          "type": "bool"
        }
      ],
      "stateMutability": "payable",
      "type": "function"
    },
    {
      "inputs": [
        {
          "internalType": "uint256",
          "name": "tokenId",
          "type": "uint256"
        }
      ],
      "name": "getApproved",
      "outputs": [
        {
          "internalType": "address",
          "name": "",
          "type": "address"
        }
      ],
      "stateMutability": "view",
      "type": "function"
    },
    {
      "inputs": [
        {
          "internalType": "uint256",
          "name": "tokenId",
          "type": "uint256"
        }
      ],
      "name": "getPhysicalInfos",
      "outputs": [
        {
          "internalType": "string",
          "name": "",
          "type": "string"
        }
      ],
      "stateMutability": "view",
      "type": "function"
    },
    {
      "inputs": [
        {
          "internalType": "address",
          "name": "owner",
          "type": "address"
        }
      ],
      "name": "getTokenIdFromOwner",
      "outputs": [
        {
          "internalType": "uint256[10]",
          "name": "",
          "type": "uint256[10]"
        }
      ],
      "stateMutability": "view",
      "type": "function"
    },
    {
      "inputs": [
        {
          "internalType": "address",
          "name": "owner",
          "type": "address"
        },
        {
          "internalType": "address",
          "name": "operator",
          "type": "address"
        }
      ],
      "name": "isApprovedForAll",
      "outputs": [
        {
          "internalType": "bool",
          "name": "",
          "type": "bool"
        }
      ],
      "stateMutability": "view",
      "type": "function"
    },
    {
      "inputs": [
        {
          "internalType": "address",
          "name": "owner",
          "type": "address"
        }
      ],
      "name": "isContentOwned",
      "outputs": [
        {
          "internalType": "bool",
          "name": "",
          "type": "bool"
        }
      ],
      "stateMutability": "view",
      "type": "function"
    },
    {
      "inputs": [
        {
          "internalType": "uint256",
          "name": "tokenId",
          "type": "uint256"
        }
      ],
      "name": "isPhysicalAvailable",
      "outputs": [
        {
          "internalType": "bool",
          "name": "",
          "type": "bool"
        }
      ],
      "stateMutability": "view",
      "type": "function"
    },
    {
      "inputs": [],
      "name": "name",
      "outputs": [
        {
          "internalType": "string",
          "name": "",
          "type": "string"
        }
      ],
      "stateMutability": "view",
      "type": "function"
    },
    {
      "inputs": [],
      "name": "owner",
      "outputs": [
        {
          "internalType": "address",
          "name": "",
          "type": "address"
        }
      ],
      "stateMutability": "view",
      "type": "function"
    },
    {
      "inputs": [
        {
          "internalType": "uint256",
          "name": "tokenId",
          "type": "uint256"
        }
      ],
      "name": "ownerOf",
      "outputs": [
        {
          "internalType": "address",
          "name": "",
          "type": "address"
        }
      ],
      "stateMutability": "view",
      "type": "function"
    },
    {
      "inputs": [
        {
          "internalType": "uint256",
          "name": "amount",
          "type": "uint256"
        }
      ],
      "name": "payToMint",
      "outputs": [
        {
          "internalType": "uint256",
          "name": "",
          "type": "uint256"
        }
      ],
      "stateMutability": "payable",
      "type": "function"
    },
    {
      "inputs": [
        {
          "internalType": "uint256",
          "name": "tokenId",
          "type": "uint256"
        },
        {
          "internalType": "string",
          "name": "infos",
          "type": "string"
        }
      ],
      "name": "receivePhysicalAsset",
      "outputs": [
        {
          "internalType": "bool",
          "name": "",
          "type": "bool"
        }
      ],
      "stateMutability": "payable",
      "type": "function"
    },
    {
      "inputs": [],
      "name": "renounceOwnership",
      "outputs": [],
      "stateMutability": "nonpayable",
      "type": "function"
    },
    {
      "inputs": [
        {
          "internalType": "address",
          "name": "to",
          "type": "address"
        }
      ],
      "name": "safeMint",
      "outputs": [],
      "stateMutability": "nonpayable",
      "type": "function"
    },
    {
      "inputs": [
        {
          "internalType": "address",
          "name": "from",
          "type": "address"
        },
        {
          "internalType": "address",
          "name": "to",
          "type": "address"
        },
        {
          "internalType": "uint256",
          "name": "tokenId",
          "type": "uint256"
        }
      ],
      "name": "safeTransferFrom",
      "outputs": [],
      "stateMutability": "nonpayable",
      "type": "function"
    },
    {
      "inputs": [
        {
          "internalType": "address",
          "name": "from",
          "type": "address"
        },
        {
          "internalType": "address",
          "name": "to",
          "type": "address"
        },
        {
          "internalType": "uint256",
          "name": "tokenId",
          "type": "uint256"
        },
        {
          "internalType": "bytes",
          "name": "_data",
          "type": "bytes"
        }
      ],
      "name": "safeTransferFrom",
      "outputs": [],
      "stateMutability": "nonpayable",
      "type": "function"
    },
    {
      "inputs": [
        {
          "internalType": "address",
          "name": "operator",
          "type": "address"
        },
        {
          "internalType": "bool",
          "name": "approved",
          "type": "bool"
        }
      ],
      "name": "setApprovalForAll",
      "outputs": [],
      "stateMutability": "nonpayable",
      "type": "function"
    },
    {
      "inputs": [
        {
          "internalType": "bytes4",
          "name": "interfaceId",
          "type": "bytes4"
        }
      ],
      "name": "supportsInterface",
      "outputs": [
        {
          "internalType": "bool",
          "name": "",
          "type": "bool"
        }
      ],
      "stateMutability": "view",
      "type": "function"
    },
    {
      "inputs": [],
      "name": "symbol",
      "outputs": [
        {
          "internalType": "string",
          "name": "",
          "type": "string"
        }
      ],
      "stateMutability": "view",
      "type": "function"
    },
    {
      "inputs": [
        {
          "internalType": "uint256",
          "name": "tokenId",
          "type": "uint256"
        }
      ],
      "name": "tokenURI",
      "outputs": [
        {
          "internalType": "string",
          "name": "",
          "type": "string"
        }
      ],
      "stateMutability": "view",
      "type": "function"
    },
    {
      "inputs": [
        {
          "internalType": "address",
          "name": "from",
          "type": "address"
        },
        {
          "internalType": "address",
          "name": "to",
          "type": "address"
        },
        {
          "internalType": "uint256",
          "name": "tokenId",
          "type": "uint256"
        }
      ],
      "name": "transferFrom",
      "outputs": [],
      "stateMutability": "nonpayable",
      "type": "function"
    },
    {
      "inputs": [
        {
          "internalType": "address",
          "name": "newOwner",
          "type": "address"
        }
      ],
      "name": "transferOwnership",
      "outputs": [],
      "stateMutability": "nonpayable",
      "type": "function"
    },
    {
      "inputs": [],
      "name": "withdraw",
      "outputs": [],
      "stateMutability": "nonpayable",
      "type": "function"
    }
  ],
  "bytecode": "0x60806040523480156200001157600080fd5b506040518060400160405280600581526020017f416d616e750000000000000000000000000000000000000000000000000000008152506040518060400160405280600381526020017f414d550000000000000000000000000000000000000000000000000000000000815250816000908051906020019062000096929190620001a6565b508060019080519060200190620000af929190620001a6565b505050620000d2620000c6620000d860201b60201c565b620000e060201b60201c565b620002bb565b600033905090565b6000600760009054906101000a900473ffffffffffffffffffffffffffffffffffffffff16905081600760006101000a81548173ffffffffffffffffffffffffffffffffffffffff021916908373ffffffffffffffffffffffffffffffffffffffff1602179055508173ffffffffffffffffffffffffffffffffffffffff168173ffffffffffffffffffffffffffffffffffffffff167f8be0079c531659141344cd1fd0a4f28419497f9722a3daafe3b4186f6b6457e060405160405180910390a35050565b828054620001b49062000285565b90600052602060002090601f016020900481019282620001d8576000855562000224565b82601f10620001f357805160ff191683800117855562000224565b8280016001018555821562000224579182015b828111156200022357825182559160200191906001019062000206565b5b50905062000233919062000237565b5090565b5b808211156200025257600081600090555060010162000238565b5090565b7f4e487b7100000000000000000000000000000000000000000000000000000000600052602260045260246000fd5b600060028204905060018216806200029e57607f821691505b60208210811415620002b557620002b462000256565b5b50919050565b61413d80620002cb6000396000f3fe6080604052600436106101815760003560e01c806370a08231116100d1578063b88d4fde1161008a578063c87b56dd11610064578063c87b56dd14610591578063da74607e146105ce578063e985e9c51461060b578063f2fde38b1461064857610181565b8063b88d4fde146104ee578063bad30f4014610517578063be8e5a341461055457610181565b806370a08231146103eb578063715018a6146104285780637d78bda21461043f5780638da5cb5b1461046f57806395d89b411461049a578063a22cb465146104c557610181565b806323b872dd1161013e57806340d097c31161011857806340d097c31461032c57806342842e0e146103555780635c4c94ae1461037e5780636352211e146103ae57610181565b806323b872dd146102af578063383b8a38146102d85780633ccfd60b1461031557610181565b806301ffc9a71461018657806306661abd146101c357806306fdde03146101ee5780630748af1114610219578063081812fc14610249578063095ea7b314610286575b600080fd5b34801561019257600080fd5b506101ad60048036038101906101a89190612913565b610671565b6040516101ba919061295b565b60405180910390f35b3480156101cf57600080fd5b506101d8610753565b6040516101e5919061298f565b60405180910390f35b3480156101fa57600080fd5b50610203610764565b6040516102109190612a43565b60405180910390f35b610233600480360381019061022e9190612af6565b6107f6565b604051610240919061295b565b60405180910390f35b34801561025557600080fd5b50610270600480360381019061026b9190612b56565b6109b4565b60405161027d9190612bc4565b60405180910390f35b34801561029257600080fd5b506102ad60048036038101906102a89190612c0b565b610a39565b005b3480156102bb57600080fd5b506102d660048036038101906102d19190612c4b565b610b51565b005b3480156102e457600080fd5b506102ff60048036038101906102fa9190612b56565b610bb1565b60405161030c9190612a43565b60405180910390f35b34801561032157600080fd5b5061032a610d1b565b005b34801561033857600080fd5b50610353600480360381019061034e9190612c9e565b610e10565b005b34801561036157600080fd5b5061037c60048036038101906103779190612c4b565b610f3b565b005b61039860048036038101906103939190612b56565b610f5b565b6040516103a5919061298f565b60405180910390f35b3480156103ba57600080fd5b506103d560048036038101906103d09190612b56565b611156565b6040516103e29190612bc4565b60405180910390f35b3480156103f757600080fd5b50610412600480360381019061040d9190612c9e565b611208565b60405161041f919061298f565b60405180910390f35b34801561043457600080fd5b5061043d6112c0565b005b61045960048036038101906104549190612af6565b611348565b604051610466919061295b565b60405180910390f35b34801561047b57600080fd5b5061048461143a565b6040516104919190612bc4565b60405180910390f35b3480156104a657600080fd5b506104af611464565b6040516104bc9190612a43565b60405180910390f35b3480156104d157600080fd5b506104ec60048036038101906104e79190612cf7565b6114f6565b005b3480156104fa57600080fd5b5061051560048036038101906105109190612e67565b61150c565b005b34801561052357600080fd5b5061053e60048036038101906105399190612c9e565b61156e565b60405161054b9190612f95565b60405180910390f35b34801561056057600080fd5b5061057b60048036038101906105769190612c9e565b611616565b604051610588919061295b565b60405180910390f35b34801561059d57600080fd5b506105b860048036038101906105b39190612b56565b61162a565b6040516105c59190612a43565b60405180910390f35b3480156105da57600080fd5b506105f560048036038101906105f09190612b56565b61163c565b604051610602919061295b565b60405180910390f35b34801561061757600080fd5b50610632600480360381019061062d9190612fb1565b611667565b60405161063f919061295b565b60405180910390f35b34801561065457600080fd5b5061066f600480360381019061066a9190612c9e565b6116fb565b005b60007f80ac58cd000000000000000000000000000000000000000000000000000000007bffffffffffffffffffffffffffffffffffffffffffffffffffffffff1916827bffffffffffffffffffffffffffffffffffffffffffffffffffffffff1916148061073c57507f5b5e139f000000000000000000000000000000000000000000000000000000007bffffffffffffffffffffffffffffffffffffffffffffffffffffffff1916827bffffffffffffffffffffffffffffffffffffffffffffffffffffffff1916145b8061074c575061074b826117f3565b5b9050919050565b600061075f600861185d565b905090565b60606000805461077390613020565b80601f016020809104026020016040519081016040528092919081815260200182805461079f90613020565b80156107ec5780601f106107c1576101008083540402835291602001916107ec565b820191906000526020600020905b8154815290600101906020018083116107cf57829003601f168201915b5050505050905090565b60003373ffffffffffffffffffffffffffffffffffffffff1661081885611156565b73ffffffffffffffffffffffffffffffffffffffff161461086e576040517f08c379a0000000000000000000000000000000000000000000000000000000008152600401610865906130c4565b60405180910390fd5b60001515600a600086815260200190815260200160002060009054906101000a900460ff161515146108d5576040517f08c379a00000000000000000000000000000000000000000000000000000000081526004016108cc90613156565b60405180910390fd5b6000838390501161091b576040517f08c379a0000000000000000000000000000000000000000000000000000000008152600401610912906131c2565b60405180910390fd5b6001600a600086815260200190815260200160002060006101000a81548160ff0219169083151502179055508282600b6000878152602001908152602001600020919061096992919061275b565b506109a9846040518060400160405280600481526020017f313030300000000000000000000000000000000000000000000000000000000081525061186b565b600190509392505050565b60006109bf826118df565b6109fe576040517f08c379a00000000000000000000000000000000000000000000000000000000081526004016109f590613254565b60405180910390fd5b6004600083815260200190815260200160002060009054906101000a900473ffffffffffffffffffffffffffffffffffffffff169050919050565b6000610a4482611156565b90508073ffffffffffffffffffffffffffffffffffffffff168373ffffffffffffffffffffffffffffffffffffffff161415610ab5576040517f08c379a0000000000000000000000000000000000000000000000000000000008152600401610aac906132e6565b60405180910390fd5b8073ffffffffffffffffffffffffffffffffffffffff16610ad461194b565b73ffffffffffffffffffffffffffffffffffffffff161480610b035750610b0281610afd61194b565b611667565b5b610b42576040517f08c379a0000000000000000000000000000000000000000000000000000000008152600401610b3990613378565b60405180910390fd5b610b4c8383611953565b505050565b610b62610b5c61194b565b82611a0c565b610ba1576040517f08c379a0000000000000000000000000000000000000000000000000000000008152600401610b989061340a565b60405180910390fd5b610bac838383611aea565b505050565b6060610bbb61194b565b73ffffffffffffffffffffffffffffffffffffffff16610bd961143a565b73ffffffffffffffffffffffffffffffffffffffff1614610c2f576040517f08c379a0000000000000000000000000000000000000000000000000000000008152600401610c2690613476565b60405180910390fd5b610c388261163c565b15610c78576040517f08c379a0000000000000000000000000000000000000000000000000000000008152600401610c6f90613508565b60405180910390fd5b600b60008381526020019081526020016000208054610c9690613020565b80601f0160208091040260200160405190810160405280929190818152602001828054610cc290613020565b8015610d0f5780601f10610ce457610100808354040283529160200191610d0f565b820191906000526020600020905b815481529060010190602001808311610cf257829003601f168201915b50505050509050919050565b610d2361194b565b73ffffffffffffffffffffffffffffffffffffffff16610d4161143a565b73ffffffffffffffffffffffffffffffffffffffff1614610d97576040517f08c379a0000000000000000000000000000000000000000000000000000000008152600401610d8e90613476565b60405180910390fd5b60003373ffffffffffffffffffffffffffffffffffffffff1647604051610dbd90613559565b60006040518083038185875af1925050503d8060008114610dfa576040519150601f19603f3d011682016040523d82523d6000602084013e610dff565b606091505b5050905080610e0d57600080fd5b50565b610e1861194b565b73ffffffffffffffffffffffffffffffffffffffff16610e3661143a565b73ffffffffffffffffffffffffffffffffffffffff1614610e8c576040517f08c379a0000000000000000000000000000000000000000000000000000000008152600401610e8390613476565b60405180910390fd5b6000610e98600861185d565b9050610ea46008611d46565b610eae8282611d5c565b610ecc81610ec7600184610ec2919061359d565b611d7a565b61186b565b80600960008473ffffffffffffffffffffffffffffffffffffffff1673ffffffffffffffffffffffffffffffffffffffff1681526020019081526020016000206001610f1785611208565b610f2191906135f3565b600a8110610f3257610f31613627565b5b01819055505050565b610f568383836040518060200160405280600081525061150c565b505050565b6000600a610f6833611208565b10610fa8576040517f08c379a0000000000000000000000000000000000000000000000000000000008152600401610f9f906136a2565b60405180910390fd5b600a610fb333611208565b83610fbe919061359d565b1115610fff576040517f08c379a0000000000000000000000000000000000000000000000000000000008152600401610ff6906136a2565b60405180910390fd5b816611c37937e0800061101291906136c2565b341015611054576040517f08c379a000000000000000000000000000000000000000000000000000000000815260040161104b9061378e565b60405180910390fd5b600080600090505b8381101561114c5761106e600861185d565b915061107a6008611d46565b6110843383611edb565b6110a28261109d600185611098919061359d565b611d7a565b61186b565b81600960003373ffffffffffffffffffffffffffffffffffffffff1673ffffffffffffffffffffffffffffffffffffffff16815260200190815260200160002060016110ed33611208565b6110f791906135f3565b600a811061110857611107613627565b5b01819055506000600a600084815260200190815260200160002060006101000a81548160ff0219169083151502179055508080611144906137ae565b91505061105c565b5080915050919050565b6000806002600084815260200190815260200160002060009054906101000a900473ffffffffffffffffffffffffffffffffffffffff169050600073ffffffffffffffffffffffffffffffffffffffff168173ffffffffffffffffffffffffffffffffffffffff1614156111ff576040517f08c379a00000000000000000000000000000000000000000000000000000000081526004016111f690613869565b60405180910390fd5b80915050919050565b60008073ffffffffffffffffffffffffffffffffffffffff168273ffffffffffffffffffffffffffffffffffffffff161415611279576040517f08c379a0000000000000000000000000000000000000000000000000000000008152600401611270906138fb565b60405180910390fd5b600360008373ffffffffffffffffffffffffffffffffffffffff1673ffffffffffffffffffffffffffffffffffffffff168152602001908152602001600020549050919050565b6112c861194b565b73ffffffffffffffffffffffffffffffffffffffff166112e661143a565b73ffffffffffffffffffffffffffffffffffffffff161461133c576040517f08c379a000000000000000000000000000000000000000000000000000000000815260040161133390613476565b60405180910390fd5b61134660006120a9565b565b600061135261194b565b73ffffffffffffffffffffffffffffffffffffffff1661137061143a565b73ffffffffffffffffffffffffffffffffffffffff16146113c6576040517f08c379a00000000000000000000000000000000000000000000000000000000081526004016113bd90613476565b60405180910390fd5b6000838390501161140c576040517f08c379a0000000000000000000000000000000000000000000000000000000008152600401611403906131c2565b60405180910390fd5b8282600b6000878152602001908152602001600020919061142e92919061275b565b50600190509392505050565b6000600760009054906101000a900473ffffffffffffffffffffffffffffffffffffffff16905090565b60606001805461147390613020565b80601f016020809104026020016040519081016040528092919081815260200182805461149f90613020565b80156114ec5780601f106114c1576101008083540402835291602001916114ec565b820191906000526020600020905b8154815290600101906020018083116114cf57829003601f168201915b5050505050905090565b61150861150161194b565b838361216f565b5050565b61151d61151761194b565b83611a0c565b61155c576040517f08c379a00000000000000000000000000000000000000000000000000000000081526004016115539061340a565b60405180910390fd5b611568848484846122dc565b50505050565b6115766127e1565b61157e6127e1565b60005b600a81101561160c57600960008573ffffffffffffffffffffffffffffffffffffffff1673ffffffffffffffffffffffffffffffffffffffff16815260200190815260200160002081600a81106115db576115da613627565b5b01548282600a81106115f0576115ef613627565b5b6020020181815250508080611604906137ae565b915050611581565b5080915050919050565b60008061162283611208565b119050919050565b606061163582612338565b9050919050565b6000600a600083815260200190815260200160002060009054906101000a900460ff16159050919050565b6000600560008473ffffffffffffffffffffffffffffffffffffffff1673ffffffffffffffffffffffffffffffffffffffff16815260200190815260200160002060008373ffffffffffffffffffffffffffffffffffffffff1673ffffffffffffffffffffffffffffffffffffffff16815260200190815260200160002060009054906101000a900460ff16905092915050565b61170361194b565b73ffffffffffffffffffffffffffffffffffffffff1661172161143a565b73ffffffffffffffffffffffffffffffffffffffff1614611777576040517f08c379a000000000000000000000000000000000000000000000000000000000815260040161176e90613476565b60405180910390fd5b600073ffffffffffffffffffffffffffffffffffffffff168173ffffffffffffffffffffffffffffffffffffffff1614156117e7576040517f08c379a00000000000000000000000000000000000000000000000000000000081526004016117de9061398d565b60405180910390fd5b6117f0816120a9565b50565b60007f01ffc9a7000000000000000000000000000000000000000000000000000000007bffffffffffffffffffffffffffffffffffffffffffffffffffffffff1916827bffffffffffffffffffffffffffffffffffffffffffffffffffffffff1916149050919050565b600081600001549050919050565b611874826118df565b6118b3576040517f08c379a00000000000000000000000000000000000000000000000000000000081526004016118aa90613a1f565b60405180910390fd5b806006600084815260200190815260200160002090805190602001906118da929190612804565b505050565b60008073ffffffffffffffffffffffffffffffffffffffff166002600084815260200190815260200160002060009054906101000a900473ffffffffffffffffffffffffffffffffffffffff1673ffffffffffffffffffffffffffffffffffffffff1614159050919050565b600033905090565b816004600083815260200190815260200160002060006101000a81548173ffffffffffffffffffffffffffffffffffffffff021916908373ffffffffffffffffffffffffffffffffffffffff160217905550808273ffffffffffffffffffffffffffffffffffffffff166119c683611156565b73ffffffffffffffffffffffffffffffffffffffff167f8c5be1e5ebec7d5bd14f71427d1e84f3dd0314c0f7b2291e5b200ac8c7c3b92560405160405180910390a45050565b6000611a17826118df565b611a56576040517f08c379a0000000000000000000000000000000000000000000000000000000008152600401611a4d90613ab1565b60405180910390fd5b6000611a6183611156565b90508073ffffffffffffffffffffffffffffffffffffffff168473ffffffffffffffffffffffffffffffffffffffff161480611ad057508373ffffffffffffffffffffffffffffffffffffffff16611ab8846109b4565b73ffffffffffffffffffffffffffffffffffffffff16145b80611ae15750611ae08185611667565b5b91505092915050565b8273ffffffffffffffffffffffffffffffffffffffff16611b0a82611156565b73ffffffffffffffffffffffffffffffffffffffff1614611b60576040517f08c379a0000000000000000000000000000000000000000000000000000000008152600401611b5790613b43565b60405180910390fd5b600073ffffffffffffffffffffffffffffffffffffffff168273ffffffffffffffffffffffffffffffffffffffff161415611bd0576040517f08c379a0000000000000000000000000000000000000000000000000000000008152600401611bc790613bd5565b60405180910390fd5b611bdb83838361248a565b611be6600082611953565b6001600360008573ffffffffffffffffffffffffffffffffffffffff1673ffffffffffffffffffffffffffffffffffffffff1681526020019081526020016000206000828254611c3691906135f3565b925050819055506001600360008473ffffffffffffffffffffffffffffffffffffffff1673ffffffffffffffffffffffffffffffffffffffff1681526020019081526020016000206000828254611c8d919061359d565b92505081905550816002600083815260200190815260200160002060006101000a81548173ffffffffffffffffffffffffffffffffffffffff021916908373ffffffffffffffffffffffffffffffffffffffff160217905550808273ffffffffffffffffffffffffffffffffffffffff168473ffffffffffffffffffffffffffffffffffffffff167fddf252ad1be2c89b69c2b068fc378daa952ba7f163c4a11628f55a4df523b3ef60405160405180910390a4505050565b6001816000016000828254019250508190555050565b611d7682826040518060200160405280600081525061248f565b5050565b60606000821415611dc2576040518060400160405280600181526020017f30000000000000000000000000000000000000000000000000000000000000008152509050611ed6565b600082905060005b60008214611df4578080611ddd906137ae565b915050600a82611ded9190613c24565b9150611dca565b60008167ffffffffffffffff811115611e1057611e0f612d3c565b5b6040519080825280601f01601f191660200182016040528015611e425781602001600182028036833780820191505090505b5090505b60008514611ecf57600182611e5b91906135f3565b9150600a85611e6a9190613c55565b6030611e76919061359d565b60f81b818381518110611e8c57611e8b613627565b5b60200101907effffffffffffffffffffffffffffffffffffffffffffffffffffffffffffff1916908160001a905350600a85611ec89190613c24565b9450611e46565b8093505050505b919050565b600073ffffffffffffffffffffffffffffffffffffffff168273ffffffffffffffffffffffffffffffffffffffff161415611f4b576040517f08c379a0000000000000000000000000000000000000000000000000000000008152600401611f4290613cd2565b60405180910390fd5b611f54816118df565b15611f94576040517f08c379a0000000000000000000000000000000000000000000000000000000008152600401611f8b90613d3e565b60405180910390fd5b611fa06000838361248a565b6001600360008473ffffffffffffffffffffffffffffffffffffffff1673ffffffffffffffffffffffffffffffffffffffff1681526020019081526020016000206000828254611ff0919061359d565b92505081905550816002600083815260200190815260200160002060006101000a81548173ffffffffffffffffffffffffffffffffffffffff021916908373ffffffffffffffffffffffffffffffffffffffff160217905550808273ffffffffffffffffffffffffffffffffffffffff16600073ffffffffffffffffffffffffffffffffffffffff167fddf252ad1be2c89b69c2b068fc378daa952ba7f163c4a11628f55a4df523b3ef60405160405180910390a45050565b6000600760009054906101000a900473ffffffffffffffffffffffffffffffffffffffff16905081600760006101000a81548173ffffffffffffffffffffffffffffffffffffffff021916908373ffffffffffffffffffffffffffffffffffffffff1602179055508173ffffffffffffffffffffffffffffffffffffffff168173ffffffffffffffffffffffffffffffffffffffff167f8be0079c531659141344cd1fd0a4f28419497f9722a3daafe3b4186f6b6457e060405160405180910390a35050565b8173ffffffffffffffffffffffffffffffffffffffff168373ffffffffffffffffffffffffffffffffffffffff1614156121de576040517f08c379a00000000000000000000000000000000000000000000000000000000081526004016121d590613daa565b60405180910390fd5b80600560008573ffffffffffffffffffffffffffffffffffffffff1673ffffffffffffffffffffffffffffffffffffffff16815260200190815260200160002060008473ffffffffffffffffffffffffffffffffffffffff1673ffffffffffffffffffffffffffffffffffffffff16815260200190815260200160002060006101000a81548160ff0219169083151502179055508173ffffffffffffffffffffffffffffffffffffffff168373ffffffffffffffffffffffffffffffffffffffff167f17307eab39ab6107e8899845ad3d59bd9653f200f220920489ca2b5937696c31836040516122cf919061295b565b60405180910390a3505050565b6122e7848484611aea565b6122f3848484846124ea565b612332576040517f08c379a000000000000000000000000000000000000000000000000000000000815260040161232990613e3c565b60405180910390fd5b50505050565b6060612343826118df565b612382576040517f08c379a000000000000000000000000000000000000000000000000000000000815260040161237990613ece565b60405180910390fd5b60006006600084815260200190815260200160002080546123a290613020565b80601f01602080910402602001604051908101604052809291908181526020018280546123ce90613020565b801561241b5780601f106123f05761010080835404028352916020019161241b565b820191906000526020600020905b8154815290600101906020018083116123fe57829003601f168201915b50505050509050600061242c612681565b9050600081511415612442578192505050612485565b60008251111561247757808260405160200161245f929190613f2a565b60405160208183030381529060405292505050612485565b612480846126a1565b925050505b919050565b505050565b6124998383611edb565b6124a660008484846124ea565b6124e5576040517f08c379a00000000000000000000000000000000000000000000000000000000081526004016124dc90613e3c565b60405180910390fd5b505050565b600061250b8473ffffffffffffffffffffffffffffffffffffffff16612748565b15612674578373ffffffffffffffffffffffffffffffffffffffff1663150b7a0261253461194b565b8786866040518563ffffffff1660e01b81526004016125569493929190613fa3565b602060405180830381600087803b15801561257057600080fd5b505af19250505080156125a157506040513d601f19601f8201168201806040525081019061259e9190614004565b60015b612624573d80600081146125d1576040519150601f19603f3d011682016040523d82523d6000602084013e6125d6565b606091505b5060008151141561261c576040517f08c379a000000000000000000000000000000000000000000000000000000000815260040161261390613e3c565b60405180910390fd5b805181602001fd5b63150b7a0260e01b7bffffffffffffffffffffffffffffffffffffffffffffffffffffffff1916817bffffffffffffffffffffffffffffffffffffffffffffffffffffffff191614915050612679565b600190505b949350505050565b60606040518060800160405280604481526020016140c460449139905090565b60606126ac826118df565b6126eb576040517f08c379a00000000000000000000000000000000000000000000000000000000081526004016126e2906140a3565b60405180910390fd5b60006126f5612681565b905060008151116127155760405180602001604052806000815250612740565b8061271f84611d7a565b604051602001612730929190613f2a565b6040516020818303038152906040525b915050919050565b600080823b905060008111915050919050565b82805461276790613020565b90600052602060002090601f01602090048101928261278957600085556127d0565b82601f106127a257803560ff19168380011785556127d0565b828001600101855582156127d0579182015b828111156127cf5782358255916020019190600101906127b4565b5b5090506127dd919061288a565b5090565b604051806101400160405280600a90602082028036833780820191505090505090565b82805461281090613020565b90600052602060002090601f0160209004810192826128325760008555612879565b82601f1061284b57805160ff1916838001178555612879565b82800160010185558215612879579182015b8281111561287857825182559160200191906001019061285d565b5b509050612886919061288a565b5090565b5b808211156128a357600081600090555060010161288b565b5090565b6000604051905090565b600080fd5b600080fd5b60007fffffffff0000000000000000000000000000000000000000000000000000000082169050919050565b6128f0816128bb565b81146128fb57600080fd5b50565b60008135905061290d816128e7565b92915050565b600060208284031215612929576129286128b1565b5b6000612937848285016128fe565b91505092915050565b60008115159050919050565b61295581612940565b82525050565b6000602082019050612970600083018461294c565b92915050565b6000819050919050565b61298981612976565b82525050565b60006020820190506129a46000830184612980565b92915050565b600081519050919050565b600082825260208201905092915050565b60005b838110156129e45780820151818401526020810190506129c9565b838111156129f3576000848401525b50505050565b6000601f19601f8301169050919050565b6000612a15826129aa565b612a1f81856129b5565b9350612a2f8185602086016129c6565b612a38816129f9565b840191505092915050565b60006020820190508181036000830152612a5d8184612a0a565b905092915050565b612a6e81612976565b8114612a7957600080fd5b50565b600081359050612a8b81612a65565b92915050565b600080fd5b600080fd5b600080fd5b60008083601f840112612ab657612ab5612a91565b5b8235905067ffffffffffffffff811115612ad357612ad2612a96565b5b602083019150836001820283011115612aef57612aee612a9b565b5b9250929050565b600080600060408486031215612b0f57612b0e6128b1565b5b6000612b1d86828701612a7c565b935050602084013567ffffffffffffffff811115612b3e57612b3d6128b6565b5b612b4a86828701612aa0565b92509250509250925092565b600060208284031215612b6c57612b6b6128b1565b5b6000612b7a84828501612a7c565b91505092915050565b600073ffffffffffffffffffffffffffffffffffffffff82169050919050565b6000612bae82612b83565b9050919050565b612bbe81612ba3565b82525050565b6000602082019050612bd96000830184612bb5565b92915050565b612be881612ba3565b8114612bf357600080fd5b50565b600081359050612c0581612bdf565b92915050565b60008060408385031215612c2257612c216128b1565b5b6000612c3085828601612bf6565b9250506020612c4185828601612a7c565b9150509250929050565b600080600060608486031215612c6457612c636128b1565b5b6000612c7286828701612bf6565b9350506020612c8386828701612bf6565b9250506040612c9486828701612a7c565b9150509250925092565b600060208284031215612cb457612cb36128b1565b5b6000612cc284828501612bf6565b91505092915050565b612cd481612940565b8114612cdf57600080fd5b50565b600081359050612cf181612ccb565b92915050565b60008060408385031215612d0e57612d0d6128b1565b5b6000612d1c85828601612bf6565b9250506020612d2d85828601612ce2565b9150509250929050565b600080fd5b7f4e487b7100000000000000000000000000000000000000000000000000000000600052604160045260246000fd5b612d74826129f9565b810181811067ffffffffffffffff82111715612d9357612d92612d3c565b5b80604052505050565b6000612da66128a7565b9050612db28282612d6b565b919050565b600067ffffffffffffffff821115612dd257612dd1612d3c565b5b612ddb826129f9565b9050602081019050919050565b82818337600083830152505050565b6000612e0a612e0584612db7565b612d9c565b905082815260208101848484011115612e2657612e25612d37565b5b612e31848285612de8565b509392505050565b600082601f830112612e4e57612e4d612a91565b5b8135612e5e848260208601612df7565b91505092915050565b60008060008060808587031215612e8157612e806128b1565b5b6000612e8f87828801612bf6565b9450506020612ea087828801612bf6565b9350506040612eb187828801612a7c565b925050606085013567ffffffffffffffff811115612ed257612ed16128b6565b5b612ede87828801612e39565b91505092959194509250565b6000600a9050919050565b600081905092915050565b6000819050919050565b612f1381612976565b82525050565b6000612f258383612f0a565b60208301905092915050565b6000602082019050919050565b612f4781612eea565b612f518184612ef5565b9250612f5c82612f00565b8060005b83811015612f8d578151612f748782612f19565b9650612f7f83612f31565b925050600181019050612f60565b505050505050565b600061014082019050612fab6000830184612f3e565b92915050565b60008060408385031215612fc857612fc76128b1565b5b6000612fd685828601612bf6565b9250506020612fe785828601612bf6565b9150509250929050565b7f4e487b7100000000000000000000000000000000000000000000000000000000600052602260045260246000fd5b6000600282049050600182168061303857607f821691505b6020821081141561304c5761304b612ff1565b5b50919050565b7f596f7520617265206e6f7420746865206f776e6572206f66207468697320746f60008201527f6b656e0000000000000000000000000000000000000000000000000000000000602082015250565b60006130ae6023836129b5565b91506130b982613052565b604082019050919050565b600060208201905081810360008301526130dd816130a1565b9050919050565b7f54686520706879736963616c20617373657420666f72207468697320746f6b6560008201527f6e206973206e6f7420617661696c61626c650000000000000000000000000000602082015250565b60006131406032836129b5565b915061314b826130e4565b604082019050919050565b6000602082019050818103600083015261316f81613133565b9050919050565b7f496e666f73206d757374206e6f7420626520656d707479000000000000000000600082015250565b60006131ac6017836129b5565b91506131b782613176565b602082019050919050565b600060208201905081810360008301526131db8161319f565b9050919050565b7f4552433732313a20617070726f76656420717565727920666f72206e6f6e657860008201527f697374656e7420746f6b656e0000000000000000000000000000000000000000602082015250565b600061323e602c836129b5565b9150613249826131e2565b604082019050919050565b6000602082019050818103600083015261326d81613231565b9050919050565b7f4552433732313a20617070726f76616c20746f2063757272656e74206f776e6560008201527f7200000000000000000000000000000000000000000000000000000000000000602082015250565b60006132d06021836129b5565b91506132db82613274565b604082019050919050565b600060208201905081810360008301526132ff816132c3565b9050919050565b7f4552433732313a20617070726f76652063616c6c6572206973206e6f74206f7760008201527f6e6572206e6f7220617070726f76656420666f7220616c6c0000000000000000602082015250565b60006133626038836129b5565b915061336d82613306565b604082019050919050565b6000602082019050818103600083015261339181613355565b9050919050565b7f4552433732313a207472616e736665722063616c6c6572206973206e6f74206f60008201527f776e6572206e6f7220617070726f766564000000000000000000000000000000602082015250565b60006133f46031836129b5565b91506133ff82613398565b604082019050919050565b60006020820190508181036000830152613423816133e7565b9050919050565b7f4f776e61626c653a2063616c6c6572206973206e6f7420746865206f776e6572600082015250565b60006134606020836129b5565b915061346b8261342a565b602082019050919050565b6000602082019050818103600083015261348f81613453565b9050919050565b7f4e6f20696e666f7320617661696c61626c6520666f72207468697320746f6b6560008201527f6e00000000000000000000000000000000000000000000000000000000000000602082015250565b60006134f26021836129b5565b91506134fd82613496565b604082019050919050565b60006020820190508181036000830152613521816134e5565b9050919050565b600081905092915050565b50565b6000613543600083613528565b915061354e82613533565b600082019050919050565b600061356482613536565b9150819050919050565b7f4e487b7100000000000000000000000000000000000000000000000000000000600052601160045260246000fd5b60006135a882612976565b91506135b383612976565b9250827fffffffffffffffffffffffffffffffffffffffffffffffffffffffffffffffff038211156135e8576135e761356e565b5b828201905092915050565b60006135fe82612976565b915061360983612976565b92508282101561361c5761361b61356e565b5b828203905092915050565b7f4e487b7100000000000000000000000000000000000000000000000000000000600052603260045260246000fd5b7f4d6178696d756d20313020746f6b656e73207065722061646472657373000000600082015250565b600061368c601d836129b5565b915061369782613656565b602082019050919050565b600060208201905081810360008301526136bb8161367f565b9050919050565b60006136cd82612976565b91506136d883612976565b9250817fffffffffffffffffffffffffffffffffffffffffffffffffffffffffffffffff04831182151516156137115761371061356e565b5b828202905092915050565b7f4d696e696d756d207061796d656e7420697320302e303035206574686572206260008201527f7920746f6b656e00000000000000000000000000000000000000000000000000602082015250565b60006137786027836129b5565b91506137838261371c565b604082019050919050565b600060208201905081810360008301526137a78161376b565b9050919050565b60006137b982612976565b91507fffffffffffffffffffffffffffffffffffffffffffffffffffffffffffffffff8214156137ec576137eb61356e565b5b600182019050919050565b7f4552433732313a206f776e657220717565727920666f72206e6f6e657869737460008201527f656e7420746f6b656e0000000000000000000000000000000000000000000000602082015250565b60006138536029836129b5565b915061385e826137f7565b604082019050919050565b6000602082019050818103600083015261388281613846565b9050919050565b7f4552433732313a2062616c616e636520717565727920666f7220746865207a6560008201527f726f206164647265737300000000000000000000000000000000000000000000602082015250565b60006138e5602a836129b5565b91506138f082613889565b604082019050919050565b60006020820190508181036000830152613914816138d8565b9050919050565b7f4f776e61626c653a206e6577206f776e657220697320746865207a65726f206160008201527f6464726573730000000000000000000000000000000000000000000000000000602082015250565b60006139776026836129b5565b91506139828261391b565b604082019050919050565b600060208201905081810360008301526139a68161396a565b9050919050565b7f45524337323155524953746f726167653a2055524920736574206f66206e6f6e60008201527f6578697374656e7420746f6b656e000000000000000000000000000000000000602082015250565b6000613a09602e836129b5565b9150613a14826139ad565b604082019050919050565b60006020820190508181036000830152613a38816139fc565b9050919050565b7f4552433732313a206f70657261746f7220717565727920666f72206e6f6e657860008201527f697374656e7420746f6b656e0000000000000000000000000000000000000000602082015250565b6000613a9b602c836129b5565b9150613aa682613a3f565b604082019050919050565b60006020820190508181036000830152613aca81613a8e565b9050919050565b7f4552433732313a207472616e73666572206f6620746f6b656e2074686174206960008201527f73206e6f74206f776e0000000000000000000000000000000000000000000000602082015250565b6000613b2d6029836129b5565b9150613b3882613ad1565b604082019050919050565b60006020820190508181036000830152613b5c81613b20565b9050919050565b7f4552433732313a207472616e7366657220746f20746865207a65726f2061646460008201527f7265737300000000000000000000000000000000000000000000000000000000602082015250565b6000613bbf6024836129b5565b9150613bca82613b63565b604082019050919050565b60006020820190508181036000830152613bee81613bb2565b9050919050565b7f4e487b7100000000000000000000000000000000000000000000000000000000600052601260045260246000fd5b6000613c2f82612976565b9150613c3a83612976565b925082613c4a57613c49613bf5565b5b828204905092915050565b6000613c6082612976565b9150613c6b83612976565b925082613c7b57613c7a613bf5565b5b828206905092915050565b7f4552433732313a206d696e7420746f20746865207a65726f2061646472657373600082015250565b6000613cbc6020836129b5565b9150613cc782613c86565b602082019050919050565b60006020820190508181036000830152613ceb81613caf565b9050919050565b7f4552433732313a20746f6b656e20616c7265616479206d696e74656400000000600082015250565b6000613d28601c836129b5565b9150613d3382613cf2565b602082019050919050565b60006020820190508181036000830152613d5781613d1b565b9050919050565b7f4552433732313a20617070726f766520746f2063616c6c657200000000000000600082015250565b6000613d946019836129b5565b9150613d9f82613d5e565b602082019050919050565b60006020820190508181036000830152613dc381613d87565b9050919050565b7f4552433732313a207472616e7366657220746f206e6f6e20455243373231526560008201527f63656976657220696d706c656d656e7465720000000000000000000000000000602082015250565b6000613e266032836129b5565b9150613e3182613dca565b604082019050919050565b60006020820190508181036000830152613e5581613e19565b9050919050565b7f45524337323155524953746f726167653a2055524920717565727920666f722060008201527f6e6f6e6578697374656e7420746f6b656e000000000000000000000000000000602082015250565b6000613eb86031836129b5565b9150613ec382613e5c565b604082019050919050565b60006020820190508181036000830152613ee781613eab565b9050919050565b600081905092915050565b6000613f04826129aa565b613f0e8185613eee565b9350613f1e8185602086016129c6565b80840191505092915050565b6000613f368285613ef9565b9150613f428284613ef9565b91508190509392505050565b600081519050919050565b600082825260208201905092915050565b6000613f7582613f4e565b613f7f8185613f59565b9350613f8f8185602086016129c6565b613f98816129f9565b840191505092915050565b6000608082019050613fb86000830187612bb5565b613fc56020830186612bb5565b613fd26040830185612980565b8181036060830152613fe48184613f6a565b905095945050505050565b600081519050613ffe816128e7565b92915050565b60006020828403121561401a576140196128b1565b5b600061402884828501613fef565b91505092915050565b7f4552433732314d657461646174613a2055524920717565727920666f72206e6f60008201527f6e6578697374656e7420746f6b656e0000000000000000000000000000000000602082015250565b600061408d602f836129b5565b915061409882614031565b604082019050919050565b600060208201905081810360008301526140bc81614080565b905091905056fe68747470733a2f2f697066732e696f2f697066732f516d59314b4d5034787a71336b4a69507448785657454e3636735563645136545748673645516f63696834626f782fa264697066735822122058fb454083e3a247a36d47dd708eb23a958fbb4226229077892c28477b3169b664736f6c63430008090033",
  "linkReferences": {},
  "deployedLinkReferences": {}
}